:10000000F8FF002011040000231A0000231A00004A
:10001000231A0000231A0000231A0000231A0000EC
:10002000231A0000231A0000231A0000231A0000DC
:10003000231A0000231A0000231A0000231A0000CC
:100040004F520000231A0000231A0000231A000058
:10005000231A0000231A0000231A0000231A0000AC
:10006000231A0000231A0000231A0000231A00009C
:10007000231A0000231A0000231A0000231A00008C
:10008000231A0000231A0000231A0000231A00007C
:10009000231A0000231A0000231A0000231A00006C
:1000A000231A0000231A0000231A0000231A00005C
:1000B000231A0000231A0000231A0000231A00004C
:1000C000231A0000231A0000231A0000231A00003C
:1000D000231A0000231A0000231A0000231A00002C
:1000E000231A0000231A0000231A0000231A00001C
:1000F000231A0000231A0000231A0000231A00000C
:10010000231A0000231A0000231A000013530000D2
:10011000231A0000231A0000231A0000231A0000EB
:10012000231A0000231A0000231A0000231A0000DB
:10013000231A0000231A0000231A0000231A0000CB
:10014000231A0000231A0000231A0000231A0000BB
:1001500061520000231A0000231A0000231A000035
:10016000231A0000231A0000231A0000231A00009B
:10017000231A0000231A0000231A0000231A00008B
:10018000231A0000231A0000231A0000231A00007B
:10019000231A0000231A0000231A00002D52000029
:1001A000231A0000231A0000231A0000231A00005B
:1001B000231A0000231A0000231A0000231A00004B
:1001C000231A0000231A0000231A0000231A00003B
:1001D000231A0000231A0000231A0000231A00002B
:10040000FFFFFFFFFFFFFFFFFFFFFFFFFEFFFFFFFD
:1004100062B608F011FFFEE72DE9F8430024200042
:10042000C0B2082808DA0022012114F14000C0B24D
:1004300001F016F9641CF2E700220121492001F0C5
:100440000FF9012201214A2001F00AF901220121BC
:100450004B2001F005F9002201214C2001F000F9A8
:10046000002201214D2001F0FBF84FF4A07149203A
:1004700001F0CCF94FF4A0714A2001F0C7F94FF414
:10048000A0714B2001F0C2F94FF4A0714C2001F093
:10049000BDF9DFF8000A00210160012101604FF47D
:1004A000FA7001F028FADFF8D85901202860DFF847
:1004B000D46900203060DFF8D07900203860DFF8A0
:1004C000CC89112088F80000DFF8C4990020C9F811
:1004D00000000120C9F8000001203860782001F0F8
:1004E0000AFA012028600020306000203860B12026
:1004F00088F800000020C9F800000120C9F80000B9
:100500000120386001202860012030600020386020
:10051000052088F800000020C9F800000120C9F873
:100520000000012038600120286001203060002098
:1005300038603A2088F800000020C9F80000012047
:10054000C9F80000012038600120286001203060D7
:10055000002038603A2088F800000020C9F8000028
:100560000120C9F800000120386001202860002027
:10057000306000203860B22088F800000020C9F800
:1005800000000120C9F80000012038600120286027
:100590000120306000203860052088F8000000202D
:1005A000C9F800000120C9F80000012038600120CE
:1005B000286001203060002038603A2088F8000070
:1005C0000020C9F800000120C9F8000001203860AF
:1005D0000120286001203060002038603A2088F82F
:1005E00000000020C9F800000120C9F80000012027
:1005F0003860012028600020306000203860B3207F
:1006000088F800000020C9F800000120C9F80000A7
:10061000012038600120286001203060002038600F
:10062000052088F800000020C9F800000120C9F862
:100630000000012038600120286001203060002087
:1006400038603A2088F800000020C9F80000012036
:10065000C9F80000012038600120286001203060C6
:10066000002038603A2088F800000020C9F8000017
:100670000120C9F800000120386001202860012015
:10068000306000203860052088F800000020C9F89C
:1006900000000120C9F80000012038600120286016
:1006A00001203060002038603A2088F800000020E7
:1006B000C9F800000120C9F80000012038600120BD
:1006C000286001203060002038603A2088F800005F
:1006D0000020C9F800000120C9F80000012038609E
:1006E000012028600020306000203860B42088F8A5
:1006F00000000020C9F800000120C9F80000012016
:100700003860012028600120306000203860072018
:1007100088F800000020C9F800000120C9F8000096
:1007200001203860012028600020306000203860FF
:10073000C02088F800000020C9F800000120C9F896
:100740000000012038600120286001203060002076
:100750003860282088F800000020C9F80000012037
:10076000C9F80000012038600120286001203060B5
:1007700000203860082088F800000020C9F8000038
:100780000120C9F800000120386001202860012004
:10079000306000203860842088F800000020C9F80C
:1007A00000000120C9F80000012038600120286005
:1007B0000020306000203860C12088F80000002050
:1007C000C9F800000120C9F80000012038600120AC
:1007D00028600120306000203860C02088F80000C8
:1007E0000020C9F800000120C9F80000012038608D
:1007F000012028600020306000203860C22088F886
:1008000000000020C9F800000120C9F80000012004
:1008100038600120286001203060002038600C2002
:1008200088F800000020C9F800000120C9F8000085
:1008300001203860012028600120306000203860ED
:10084000002088F800000020C9F800000120C9F845
:100850000000012038600120286000203060002066
:100860003860C32088F800000020C9F8000001208B
:10087000C9F80000012038600120286001203060A4
:10088000002038608C2088F800000020C9F80000A3
:100890000120C9F8000001203860012028600120F3
:1008A0003060002038602A2088F800000020C9F855
:1008B00000000120C9F800000120386001202860F4
:1008C0000020306000203860C42088F8000000203C
:1008D000C9F800000120C9F800000120386001209B
:1008E000286001203060002038608A2088F80000ED
:1008F0000020C9F800000120C9F80000012038607C
:10090000012028600120306000203860EE2088F847
:1009100000000020C9F800000120C9F800000120F3
:100920003860012028600020306000203860C52039
:1009300088F800000020C9F800000120C9F8000074
:1009400001203860012028600120306000203860DC
:100950000C2088F800000020C9F800000120C9F828
:100960000000012038600120286000203060002055
:100970003860E02088F800000020C9F8000001205D
:10098000C9F8000001203860012028600120306093
:1009900000203860052088F800000020C9F8000019
:1009A0000120C9F8000001203860012028600120E2
:1009B0003060002038601A2088F800000020C9F854
:1009C00000000120C9F800000120386001202860E3
:1009D00001203060002038600C2088F800000020E2
:1009E000C9F800000120C9F800000120386001208A
:1009F000286001203060002038600E2088F8000058
:100A00000020C9F800000120C9F80000012038606A
:100A10000120286001203060002038603A2088F8EA
:100A200000000020C9F800000120C9F800000120E2
:100A300038600120286001203060002038603420B8
:100A400088F800000020C9F800000120C9F8000063
:100A500001203860012028600120306000203860CB
:100A60002D2088F800000020C9F800000120C9F8F6
:100A70000000012038600120286001203060002043
:100A800038602F2088F800000020C9F800000120FD
:100A9000C9F8000001203860012028600120306082
:100AA000002038602D2088F800000020C9F80000E0
:100AB0000120C9F8000001203860012028600120D1
:100AC0003060002038602A2088F800000020C9F833
:100AD00000000120C9F800000120386001202860D2
:100AE00001203060002038602F2088F800000020AE
:100AF000C9F800000120C9F8000001203860012079
:100B0000286001203060002038603C2088F8000018
:100B10000020C9F800000120C9F800000120386059
:100B2000012028600120306000203860002088F813
:100B300000000020C9F800000120C9F800000120D1
:100B400038600120286001203060002038600120DA
:100B500088F800000020C9F800000120C9F8000052
:100B600001203860012028600120306000203860BA
:100B7000022088F800000020C9F800000120C9F810
:100B80000000012038600120286001203060002032
:100B90003860102088F800000020C9F8000001200B
:100BA000C9F8000001203860012028600020306072
:100BB00000203860E12088F800000020C9F800001B
:100BC0000120C9F8000001203860012028600120C0
:100BD000306000203860042088F800000020C9F848
:100BE00000000120C9F800000120386001202860C1
:100BF00001203060002038601B2088F800000020B1
:100C0000C9F800000120C9F8000001203860012067
:100C1000286001203060002038600D2088F8000036
:100C20000020C9F800000120C9F800000120386048
:100C30000120286001203060002038600E2088F8F4
:100C400000000020C9F800000120C9F800000120C0
:100C500038600120286001203060002038602D209D
:100C600088F800000020C9F800000120C9F8000041
:100C700001203860012028600120306000203860A9
:100C8000292088F800000020C9F800000120C9F8D8
:100C90000000012038600120286001203060002021
:100CA0003860242088F800000020C9F800000120E6
:100CB000C9F8000001203860012028600120306060
:100CC00000203860292088F800000020C9F80000C2
:100CD0000120C9F8000001203860012028600120AF
:100CE000306000203860282088F800000020C9F813
:100CF00000000120C9F800000120386001202860B0
:100D00000120306000203860262088F80000002094
:100D1000C9F800000120C9F8000001203860012056
:100D200028600120306000203860312088F8000001
:100D30000020C9F800000120C9F800000120386037
:100D40000120286001203060002038603B2088F8B6
:100D500000000020C9F800000120C9F800000120AF
:100D600038600120286001203060002038600020B9
:100D700088F800000020C9F800000120C9F8000030
:100D80000120386001202860012030600020386098
:100D9000002088F800000020C9F800000120C9F8F0
:100DA0000000012038600120286001203060002010
:100DB0003860032088F800000020C9F800000120F6
:100DC000C9F800000120386001202860012030604F
:100DD00000203860122088F800000020C9F80000C8
:100DE0000120C9F80000012038600120286000209F
:100DF0003060002038603A2088F800000020C9F8F0
:100E000000000120C9F8000001203860012028609E
:100E10000120306000203860052088F800000020A4
:100E2000C9F800000120C9F8000001203860012045
:100E300028600020306000203860292088F80000F9
:100E40000020C9F800000120C9F800000120386026
:100E50000120286000203060002038602C2088F8B5
:100E600000000020C9F800000120C9F8000001209E
:100E70003860DFF8C807007800F00EF8BDE8F183AD
:100E80002810FE433010FE432C10FE4380F00F402C
:100E90002410FE433410FE4370B504002000C0B29D
:100EA000042804DBC821DFF8980700F04FFDDFF8C5
:100EB0008C0704702000C0B2002808D0022800F07F
:100EC0007C81C0F0BF80032800F03082E2E2DFF8CE
:100ED000740701210160DFF8701700220A60DFF853
:100EE0006C2700231360DFF8683736251D70DFF8A4
:100EF000645700262E6001262E600126166001260A
:100F0000066001260E6000261660C8261E700026A8
:100F10002E6001262E60012616600126066000263E
:100F20000E60002616602A261E7000262E600126FE
:100F30002E60012616600126066001260E6000263E
:100F4000166000261E7000262E6001262E600126E7
:100F500016600126066001260E6000261660022635
:100F60001E7000262E6001262E60012616600126C6
:100F7000066001260E600026166000261E70002600
:100F80002E6001262E6001261660012606600126CD
:100F90000E600026166081261E7000262E60012637
:100FA0002E60012616600126066000260E600026CF
:100FB00016602B261E7000262E6001262E6001264C
:100FC00016600126066001260E60002616600026C7
:100FD0001E7000262E6001262E6001261660012656
:100FE000066001260E600026166003261E7000268D
:100FF0002E6001262E60012616600126066001265D
:101000000E600026166000261E7000262E60012647
:101010002E6001261660012606600120086000206F
:1010200010608220187000202860012028600120B4
:1010300010608020DFF8201608808020DFF81C1662
:10104000088027E2DFF8FC0501210160DFF8F815D0
:1010500000220A60DFF8F42500231360DFF8F03582
:1010600036251D70DFF8EC5500262E6001262E6017
:10107000012616600126066001260E600026166015
:10108000A8261E7000262E6001262E6001261660FE
:101090000126066000260E60002616602A261E70B5
:1010A00000262E6001262E600126166001260660AD
:1010B00001260E600026166000261E7000262E6097
:1010C00001262E60012616600126066001260E60AC
:1010D0000026166003261E7000262E6001262E6054
:1010E000012616600126066001260E6000261660A5
:1010F00000261E7000262E6001262E600126166036
:101100000126066001260E600026166082261E70EB
:1011100000262E6001262E6001261660012606603C
:1011200000260E60002616602B261E7000262E60FC
:1011300001262E60012616600126066001260E603B
:101140000026166000261E7000262E6001262E60E6
:10115000012616600126066001260E600026166034
:1011600002261E7000262E6001262E6001261660C3
:101170000126066001260E600026166000261E70FD
:1011800000262E6001262E600126166001260660CC
:101190000120086000201060812018700020286065
:1011A00001202860012010608020DFF8AC14088046
:1011B0008020DFF8A81408806CE1DFF888040121A2
:1011C0000160DFF8841400220A60DFF88024002325
:1011D0001360DFF87C3436251D70DFF87854002664
:1011E0002E6001262E60012616600126066001266B
:1011F0000E600026166008261E7000262E6001264E
:101200002E60012616600126066000260E6000266C
:1012100016602A261E7000262E6001262E600126EA
:1012200016600126066001260E6000261660002664
:101230001E7000262E6001262E60012616600126F3
:10124000066001260E600026166002261E7000262B
:101250002E6001262E6001261660012606600126FA
:101260000E600026166000261E7000262E600126E5
:101270002E60012616600126066001260E600026FB
:10128000166081261E7000262E6001262E60012623
:1012900016600126066000260E60002616602B26CA
:1012A0001E7000262E6001262E6001261660012683
:1012B000066001260E600026166000261E700026BD
:1012C0002E6001262E60012616600126066001268A
:1012D0000E600026166003261E7000262E60012672
:1012E0002E60012616600126066001260E6000268B
:1012F000166000261E7000262E6001262E60012634
:10130000166001260660012008600020106082201F
:1013100018700020286001202860012010608020C3
:10132000CD4908808020CD490880B3E0C54801211F
:101330000160C54900220A60C44A00231360C44BFF
:1013400036251D70C34D00262E6001262E60012615
:1013500016600126066001260E60002616606826CB
:101360001E7000262E6001262E60012616600126C2
:10137000066000260E60002616602A261E700026D3
:101380002E6001262E6001261660012606600126C9
:101390000E600026166000261E7000262E600126B4
:1013A0002E60012616600126066001260E600026CA
:1013B000166003261E7000262E6001262E60012670
:1013C00016600126066001260E60002616600026C3
:1013D0001E7000262E6001262E6001261660012652
:1013E000066001260E600026166082261E7000260A
:1013F0002E6001262E60012616600126066000265A
:101400000E60002616602B261E7000262E60012618
:101410002E60012616600126066001260E60002659
:10142000166000261E7000262E6001262E60012602
:1014300016600126066001260E6000261660022650
:101440001E7000262E6001262E60012616600126E1
:10145000066001260E600026166000261E7000261B
:101460002E6001262E6001261660012606600120EE
:101470000860002010608120187000202860012082
:101480002860012010608020734908808020734903
:101490000880FFE770BD73B468480078C0070AD5BC
:1014A000BDF80000C01CADF80000BDF80200801CB3
:1014B000ADF8020009E0BDF80000801CADF80000A6
:1014C000BDF80200C01CADF802005E4901200860B2
:1014D0005D4A002010605D4B002018605C4C2A20A3
:1014E00020705C4D002028600120286001201860D9
:1014F000012008600120106000201860BDF8000085
:1015000080B2000A2070002028600120286001209D
:101510001860012008600120106000201860BDF8EC
:101520000000207000202860012028600120186041
:10153000012008600120106000201860BDF8000044
:10154000BDF8046016FA80F0401E001220700020E2
:101550002860012028600120186001200860012017
:10156000106000201860BDF80060BDF80400861906
:10157000701E207000202860012028600120186063
:101580000120086000201060002018602B202070CF
:1015900000202860012028600120186001200860D8
:1015A0000120106000201860BDF8020080B2000A1F
:1015B0002070002028600120286001201860012090
:1015C00008600120106000201860BDF80200207043
:1015D0000020286001202860012018600120086098
:1015E0000120106000201860BDF80200BDF8066000
:1015F00016FA80F0401E00122070002028600120A2
:10160000286001201860012008600120106000207F
:101610001860BDF80210BDF806004118481E207081
:1016200000202860012028600120186073BC7047EA
:101630000948008870470948008870475076FF1FA6
:10164000E89300002810FE433010FE432C10FE43A8
:1016500080F00F402410FE43F00CFF1FF20CFF1F20
:10166000F8B504000D0016004FF480712000C0B2E0
:1016700000F0CCF8280040B2002812D161482100C7
:10168000C9B2491150F821102200D2B2521150F8BB
:1016900022004269012314F01F0083409A434A61EB
:1016A00038E00121574A2000C0B2401152F8200012
:1016B0002300DBB25B1152F823305B6914F01F0783
:1016C00011FA07F73B4343613000C0B2002811D143
:1016D0002000C0B2401152F82000036814F01F002F
:1016E000814033EA01012000C0B2401152F82000CD
:1016F00001600FE02000C0B2401152F820000368E2
:1017000014F01F00814019432000C0B2401152F86C
:1017100020000160F1BD70B504000D00394E2000BD
:10172000C0B2401156F82000406914F01F01C840B3
:10173000C00703D46321344800F008F92800C0B280
:10174000002811D12000C0B2401156F820000168D5
:10175000012214F01F00824091432000C0B24011CA
:1017600056F82000016010E02000C0B2401156F889
:1017700020000168012214F01F0082401143200064
:10178000C0B2401156F82000016070BD38B50400A9
:101790001C4D2000C0B2401155F82000406914F0E3
:1017A0001F01C840C00703D47B21174800F0CEF8C2
:1017B0002000C0B2401155F82010012214F01F0083
:1017C0008240CA6031BD38B504000E4D2000C0B261
:1017D000401155F82000406914F01F01C840C007AF
:1017E00003D58C21084800F0B1F82000C0B24011A8
:1017F00055F82000006914F01F04E04010F00100CB
:1018000032BD0000640BFF1FB094000030B42B4BBE
:101810001C684FF400750200D2B2520995402C4367
:101820001C60274B0200D2B2521153F8224001250E
:1018300010F01F029540C4F8A0500200D2B252111D
:1018400053F822200300DBB213F01F0342F82310E9
:1018500030BC704730B4194B1C684FF4007502005F
:10186000D2B2520995402C431C60154B0200D2B2F3
:10187000521153F82240012510F01F029540C4F880
:10188000A05031F4E0610200D2B2521153F822208C
:101890000400E4B214F01F0452F8242012F4E062B1
:1018A00011430200D2B2521153F822200300DBB2DE
:1018B00013F01F0342F8231030BC704738800440F7
:1018C000D40BFF1F10B50400002C13D0B4F1807F9F
:1018D00003D329210E4800F039F80E480021016099
:1018E0000D490C6000210D4A11600521016001685D
:1018F000C903FCD510BD10B504002000441E00280B
:1019000004D007480068FFF7DDFFF6E710BD0000D0
:101910001095000010E000E014E000E018E000E0A6
:10192000B06BFF1FDFF800F0310DFF1FDFF800F094
:10193000510DFF1FBFF34F8F46490A6812F4E06252
:10194000454802430A60BFF34F8FFEE738B50400F5
:101950000D00002000F08EF82A0021003F4800F022
:10196000E9F8002000F0C7F84FF47A70FFF7C3FFE2
:10197000F2E738B504000D00210049B2042000F060
:1019800004FA200032BD10B50024042000F044FA0F
:10199000042000F07BFA002842D1002000F06AF811
:1019A000042000F073FA012801D101200400002076
:1019B00000F0A1F82A4800F0BDF84FF4FA70FFF7E4
:1019C0009AFF2000C0B20128EAD1042000F05EFA9C
:1019D0000028E5D1042000F059FA002806D10020A3
:1019E00000F089F86420FFF786FFF3E7042000F099
:1019F0004DFA012806D1002000F07DF83220FFF7D3
:101A00007AFFF3E7174800F095F8FFF78BFF6420A3
:101A1000FFF771FF0020FFF789FFFFF78BFFBFE79C
:101A200010BD10B510480468012000F023F8012013
:101A300000F061F80D492200D2B20F2042430A445F
:101A40002100C9B20A4800F075F84FF47A70FFF728
:101A500052FFECE70CED00E00400FA053C980000B2
:101A6000E49800007098000004ED00E04C04FF1FB3
:101A7000D897000010B50400200040B2042808DA0E
:101A8000012201212A4823005BB2C05CFFF7E8FD78
:101A90000FE0042004002000441E40B2002808D0BB
:101AA00001220121224823005BB2C05CFFF7D8FD70
:101AB000F1E710BD38B505000C00280040B204283D
:101AC00008DA2100C9B21A482A0052B2805CFFF736
:101AD00022FE0FE0042005002800451E40B2002829
:101AE00008D02100C9B212482A0052B2805CFFF728
:101AF00012FEF1E731BD10B50400200040B2042809
:101B000006DA0B48210049B2405CFFF73FFE0DE0CA
:101B1000042004002000441E40B2002806D00448DF
:101B2000210049B2405CFFF731FEF3E710BD000031
:101B3000580CFF1F0EB4C0B5024603A80021019047
:101B4000009101AB0121044878440C3000F0B6F953
:101B500006BC5DF810FB00BF6B7D0000012210F099
:101B60001F018A40DFF8941203005BB25B0941F861
:101B7000232070472DE9F84304000D00200040B2F7
:101B8000002808D0022828D016D3042847D035D3FF
:101B9000052855D065E0DFF86802016851F48061DE
:101BA00001604FF440713020FFF730FE4FF40071B8
:101BB0000220FFF72BFE54E0DFF84402016851F4E5
:101BC000006101604FF440718120FFF71FFE4FF468
:101BD00040718020FFF71AFE43E0DFF8240201681D
:101BE00051F4805101604FF440716320FFF70EFE05
:101BF0004FF440716220FFF709FE32E0DFF8000287
:101C0000016851F4005101604FF440715020FFF71A
:101C1000FDFD4FF440715120FFF7F8FD21E0DFF8A2
:101C2000E401016851F4806101604FF440714E207D
:101C3000FFF7ECFD4FF440714F20FFF7E7FD10E098
:101C4000DFF8C001016851F4006101604FF4407198
:101C50008920FFF7DBFD4FF440718820FFF7D6FDA8
:101C6000FFE7DFF8A461200040B256F82000C078FA
:101C700010F0F300210049B256F82110C87020007E
:101C800040B256F820008078210049B256F8211061
:101C90008870200040B2002803D0200040B2012804
:101CA00006D1DFF8680107684FF47A70474305E012
:101CB000DFF85C0107684FF47A7047432801B7FBEF
:101CC000F0F8404680B2B0F5005F02DB41F6FF70ED
:101CD0008046B7FBF5F9404680B2B9EB001948469B
:101CE00080B2202803DBDC214A48FFF72FFE2000CA
:101CF00040B256F82000007810F0E000C8F304214C
:101D00000143220052B256F822201170210049B23C
:101D100056F8211081F80180210049B256F82110AF
:101D2000897A11F0E00119F01F020A4323005BB227
:101D300056F823309A72220052B256F82220127CB2
:101D400052F0880223005BB256F823301A74220046
:101D500052B256F82220D27852F00C0223005BB225
:101D600056F82330DA70BDE8F183274A03005BB2EE
:101D700052F823301B799B06F7D503005BB252F86B
:101D8000232092F907200A7070471F4A03005BB2B4
:101D900052F823301B791B06F7D503005BB252F8CB
:101DA0002320D171704770B504000D00160030007B
:101DB000461E002809D095F90000010049B2200014
:101DC00040B2FFF7E2FF6D1CF1E770BD10B50400F3
:101DD0000D48210049B250F82110C97851F0200176
:101DE000220052B250F82200C170200040B24000E0
:101DF0002D3040B2FFF7B2FE10BD000000E100E060
:101E00003480044028800440F40BFF1FB06BFF1F98
:101E1000B86BFF1F7095000038B50400200040B279
:101E200008280EDA244D00220021200040B2285C50
:101E3000FFF716FC0321200040B2285CFFF70AFDE3
:101E400015E0082004002000441E40B200280ED0F7
:101E5000194D00220021200040B2285CFFF700FC51
:101E60000321200040B2285CFFF7F4FCEBE731BD12
:101E700010B504001048210049B2405CFFF7A3FCF4
:101E8000002801D1002000E0012010BD10B50400A1
:101E9000200040B2FFF7ECFF00280AD10A20FFF72C
:101EA0002AFD200040B2FFF7E3FF002801D1002007
:101EB00000E0012010BD0000500CFF1F2DE9F04391
:101EC0009FB00FF6A836269CDFF804898DF83B40BA
:101ED000029100240B944FF0FF37044691461D46B3
:101EE0000AE019F8011B0298A0470028029000F0B0
:101EF000A1800B98401C0B9099F8000050B1252848
:101F0000EFD10021002205910692079108920991D4
:101F10000A9203E00B98A0E041F0010119F8010FCB
:101F20002028F9D023280CD02B2804D02D2805D028
:101F3000302809D080E041F00201EFE741F00401D0
:101F4000ECE741F00801E9E741F01001E6E70D9206
:101F50000AE00D98404505DA00EB800002EB4002F4
:101F6000303A0D9209F1010999F80020A2F13000F0
:101F70000A28EED399F800002E2818BF0C9726D116
:101F800019F8010F2A2808D12868286009F10109E9
:101F900050F8042B28600C9219E02D280CBF09F191
:101FA0000109002000220C920BE040B90C9A424536
:101FB00005DA02EB820203EB4203303B0C9309F19A
:101FC000010999F80030A3F130020A2AEDD3ADF8E7
:101FD0003810304699F8001000F098FD08B119F853
:101FE000010B8DF83A009DF83A00682805D199F860
:101FF000000068280CD1622106E06C2804BF99F823
:1020000000006C2804D171218DF83A1009F1010902
:1020100010A804902A4619F8013B6946204600F0B2
:102020005CF838B910AA6946204600F086F9002805
:102030007FF562AF384610E02A2888D12A682A60E6
:1020400052F8040B2A6000280D9003D540420D90F1
:1020500041F0040109F101098CE71FB0BDE8F083EC
:10206000622820D0682811D06A2803D06C2827D095
:10207000712825D10868C01D20F007000860D0E94C
:10208000002308300860194610467047002A0A6885
:102090000A60106803D0121D0A6000B217E0121D1A
:1020A0000A6080B217E0002A0A680A60106803D04C
:1020B000121D0A6040B20AE0121D0A60C0B20AE0B6
:1020C000002A0A680A60106803D0121D0A60C1174E
:1020D0007047121D0A600021704770B51C460D46FE
:1020E000B4F125002E69114600F015812038022830
:1020F00063D9133840D00B3816D0401E1ED0401E76
:1021000002285AD9001F19D0401F00F08180401EBC
:1021100032D0401E00F0CB80C01E00F0DA80801E5E
:102120002AD0C01E28D0FCE06869421C6A610A6897
:102130000A6052F8043B0A603354FCE095F83A0018
:102140000122FFF78DFFC5E90001002904D5686968
:10215000411C69612D220DE0288F810704D5686933
:10216000411C69612B2205E0C00721D56869411C2B
:102170006961202232541BE095F83A000022FFF7F3
:102180006FFFC5E9000195F83800010710D5D5E9C2
:102190000023002B08BF002A0AD044F02000782832
:1021A00006D1686930213154401C421C6A613454A4
:1021B000214668693044E86087E00868C01D20F067
:1021C00007000860D0E9002308300860C5E9002353
:1021D000D5E90001C80F04D06869411C69612D224E
:1021E0000DE0288F810704D56869411C69612B22A5
:1021F00005E0C00704D56869411C6961202232549A
:1022000068693044E8602146284600F0C4F992E04D
:1022100005F13A02507820B14FF0FF340FF6540028
:1022200062E01078622808D0682824D06A2812D08A
:102230006C282ED071280ED02BE00A680A6052F864
:10224000040B0A6020B94FF0FF340FF640004BE05A
:10225000E96A01706FE00A680A6052F8040B0A60CC
:1022600020B94FF0FF340FF624003DE0EA6AD3179F
:10227000C0E900235FE00A680A6052F8040B0A60B4
:1022800020B94FF0FF340FF604002DE0E96A018019
:1022900051E00A680A6052F8040B0A6020B94FF056
:1022A000FF340FF2E8701FE0E96A016043E00A685A
:1022B0000A6052F8040B0A60002120F0000221F0AD
:1022C000FF33C5E90023EE607821284600F0BBF813
:1022D00031E00868086050F8044B0860EC603CB9D5
:1022E0004FF0FF340FF2BC7000F01CFC201A70BDE0
:1022F0002E6B002E04D5204600F034FC044608E086
:1023000032460021204600F049FC002814BF041B7F
:102310003446AC610FE06869411C69612522325482
:1023200009E06969481C686125227254210002D0C5
:10233000431C6B613454002070BD2DE9FC410F46F5
:10234000064690467A6B7869396ABC6A121AB8698F
:10235000521A796A121AF869521A121A97F8380042
:10236000141B41070FD42020002C8DF800000ADD3B
:10237000254601236A463946304600F05FFB0028B7
:102380005DD16D1EF5D17B6942463946304600F07D
:1023900055FB002853D130208DF800003D6A002DF8
:1023A00009DD01236A463946304600F047FB002824
:1023B00045D16D1EF5D1BB69FA683946304600F04B
:1023C0003DFB00283BD130208DF800007D6A002DB8
:1023D00008DD01236A463946304600F02FFB70BB0A
:1023E0006D1EF6D1F868B969FB6942183946304666
:1023F00000F024FB18BB30208DF80000BD6A002DD2
:1024000008DD01236A463946304600F017FBB0B9B3
:102410006D1EF6D197F8380041070DD52020002C0D
:102420008DF8000008DD01236A463946304600F089
:1024300005FB20B9641EF6D10020BDE8F6814FF0FF
:10244000FF30BDE8F6812DE9FC4307466F293E6960
:1024500008BF082405D041F02000782814BF0A24C2
:1024600010243C25D7E90023642918BF6929904628
:10247000994605D1002B03D5D8F1000869EB49092D
:10248000B9F1000F08BFB8F1000F1FD1386BE8B9E0
:10249000082C4CD197F83800010748D530203B254F
:1024A00086F83B0043E000280ED597F8380000F08E
:1024B0001400102808D17B6B7969386A5B1A1B1AE3
:1024C0009A1A002AC8BF3A62BDE8F3838DF800105B
:1024D000404649462246E31700F08CFB3032D0B22A
:1024E0006D1E3A28019504DB9DF80000A0F1510112
:1024F0008A187255404649462246E31700F07AFB97
:1025000080465FEA010908BFB8F1000F03D0F86800
:1025100071198842DCD3082C09D197F838000107DB
:1025200005D5705D302802D06D1E30207055C5F184
:102530003C02BA617119F960386B8242B3DA821ACF
:102540003A624FF6EF70398F01403987BDE8F38367
:102550002DE9D04306460F4614464FF00008DFF839
:10256000749212E0E00707D542464B4630463946A2
:1025700000F058FC06460F464046494642464B4648
:1025800000F050FC641080468946002CEAD13046A9
:102590003946BDE8D0832DE9F047064689468EB01E
:1025A000D6E90001CDE9020104AC306B002802D568
:1025B0000620306305E001BF49F0200067280121B3
:1025C0003163D6E9002358004015401C0DD1190392
:1025D0000BD0A9F1610103201A29B06102D20FF2D8
:1025E000E04110E00FF2DC410DE059004915491CB3
:1025F0000ED118030CD1A9F1610103201A29B06191
:1026000016D30FF2C841F068032200F0DDFCDBE0D6
:1026100023F00047B7F5801F1046194622F0000549
:102620000DD20022002F08BF002D019203D116E029
:102630000FF29441E7E701AA00F01AFD08E06648AE
:10264000664900EB17500190654803401046194356
:10265000019B644D47F29752534393FBF5F2C6E951
:10266000000120F0000331F0004104BF002B0023E3
:1026700000F0A280DDE90240019220F00045D2F195
:10268000070204DD20462946FFF762FF0AE05242B6
:1026900000205549FFF75CFF02460B4620462946BD
:1026A00000F01EFD044649F0200ABAF1660F306BB7
:1026B00006BF019D0A3506252D18142DC8BF142507
:1026C000302088468DF810000DF11107002D33DD04
:1026D0002046414600F028FE01460A4607F108035D
:1026E00004200A27B2FBF7F707EB870EA2EB4E0296
:1026F000303203F8012C0A22B7FBF2F202EB820E11
:10270000A7EB4E073037401E03F8027DE9D1083DA4
:10271000002D03F10807D9DD084600F019FE024636
:102720000B462046414600F021FE00222F4B00F0D0
:1027300079FB04468846CBE70DF111003F1A0DF1F5
:10274000110404E00198401E7F1E0190641C207853
:102750003028F7D0BAF1660F02D10198401C04E08E
:10276000BAF1650F0CBF01200020336BC3189F42E4
:10277000B8BF7B1E002B1ED4BB4204DAE05C3528B8
:10278000A8BF392000DA30201946621E02EB01088A
:1027900000E05B1E18F80179491E8742F9D03928FC
:1027A00002D1605C401C6054002904D50198401C93
:1027B00014465B1C0190019800B200901BB22246A7
:1027C0004946304600F014F80EB0BDE8F08700002E
:1027D000CBCCCC0C0000244002FCFFFF0000E03F0B
:1027E000FFFF0F80A08601000000F03F84D79741D3
:1027F0002DE9F84783B005468A469146984600F091
:1028000027FEB8F1000F406A2F6B067803DC4FF00B
:1028100001080FF2BC294AF02000BDF930406628BB
:1028200008BF641C13D0672840F08F8014F1040F98
:102830007ADBBC4278DA95F83800641C010702D4D0
:10284000B845B8BF474620B23F1A48BF00270FFA25
:1028500084FAE868A969BAF1000F23DC4A1C302326
:102860004354002F03DC95F83800010702D5E868CF
:102870008654521C17EB0A0FB8BF7C4224B2E719EA
:1028800060424745B8BFB846AA6168620FFA88F44B
:10289000EC61E868AB6922464946184400F094FBB5
:1028A0003F1B18E022B29045084416DA42464946DA
:1028B00000F08AFBA8694044A861AAEB0801002F38
:1028C000696203DC95F838100A0704D5E9680E54EC
:1028D000E869401CE861AF6299E0494600F074FB8A
:1028E000A869002F5044A8EB040803DC95F83810C1
:1028F0000A0702D5E9680E54401CA8610FFA88F057
:102900008742EB68A869B8BFB8460FFA88F209EBAE
:102910000A01184400F058FBA9690FFA88F0014435
:10292000A961381A686272E0B84504DA95F838107F
:102930000A0758BF47467F1E48BF0027BAF1670FF6
:102940000CBF4FF0650A4FF0450AA969EB68481CB7
:10295000A861002F19F8012B5A5403DC95F83810A0
:102960000A0719D5E968431CAB610E54002F13DD2B
:10297000A8F1010630B28742D5F80CC0B8BF3E4678
:1029800032B249460CEB030000F01EFBA86936B2D8
:102990003018BF1BA8616F62E868A9690844002C61
:1029A00080F800A003D42B224270811C03E02D216B
:1029B00041706442811C00206A460AE023460A24D2
:1029C00093FBF4F404EB8406A3EB460302F8013B0B
:1029D000401C24B2002CF1DC012806DC4AF0200265
:1029E000652A04BF302201F8012B48B9302001F8D4
:1029F000010B07E0401E1DF80030303301F8013BA9
:102A00000028F7DCEA68A8691044091AE96195F81A
:102A1000380000F0140010280DD16A69A969686AAD
:102A20008A18E9698218A86A8A188218686B824233
:102A3000BCBF821A2A6204B0BDE8F087F8B505462B
:102A40000E4617461C46002074B117F8011BB068EB
:102A5000A847B06030B1F06A401CF0620020641EEC
:102A6000F3D1F2BD4FF0FF30F2BD0000686A6C7424
:102A70007A4C00007072696E74665F733A20256E3E
:102A800020646973616C6C6F776564007072696E45
:102A900074663A2062616420256E20617267756DEC
:102AA000656E74007072696E74665F733A2062615D
:102AB0006420257320617267756D656E7400000077
:102AC0006E616E004E414E00696E6600494E4600D2
:102AD000300030B4002513E050F8042BD30744BF76
:102AE000A9F101039A18091F042942F8045BFAD2DC
:102AF00013468C0744BF15809B1CC90748BF1D7037
:102B000050F8041B0029E7D130BC7047C9B20278E5
:102B10008A421AB11CBF10F8012FF9E718BF002034
:102B20007047000080B500B906A005490B681BB1CD
:102B300022220021984701E000F08EFC222002BDF5
:102B4000C475FF1F636F6E73747261696E74206861
:102B5000616E646C65723A20626164206D657373A6
:102B60006167650000F10103810704D010F8011BC3
:102B7000820781B1FAD10268A2F10131914311F0CB
:102B8000803104BF50F8042FF6E709BAB1FA81F199
:102B900000EBD100401CC01A70470000C9B2830787
:102BA00006D0521E22D310F8013B9942F7D11FE004
:102BB000083A13D302F1040241EA012141EA01413A
:102BC00050F8043B121F21BF4B40A3F1013C2CEAFB
:102BD000030C1CF0803FF3D0C9B2001F083210F87C
:102BE000013B521E28BF91EA030FF8D818BF0120FD
:102BF000401E7047BBBBE1B1B2F5803F80F07E80E4
:102C0000022A1ED98C46B1FBF2F102FB11C31B0450
:102C100043EA1043B3FBF2FC02FB1C3380B240EAF0
:102C20000343B3FBF2F002FB103240EA0C400023F6
:102C30007047022A05D98446B0FBF2F002FB10C2AD
:102C400070474AB105D100F0010249085FEA30003F
:102C5000704700220023704700F002BC0B00020006
:102C6000002100207047904271EB030CF6D3B3F5BE
:102C7000803F2FD2F0B5B3FA83F7B1FA81F4A7F110
:102C80000F0E3D1B5340CEF1200602FA0EF2F34127
:102C90005340B5F10F0746D80F3C2C444140C4F1D6
:102CA0002006A040F1414140B1FBF3F603FB1611B1
:102CB000A2FB0645001BA94102D2761E801859418D
:102CC00080EA010221FA0EF362FA0EF200215A4064
:102CD0003046F0BD30B4B1FBF3FC03FB1C11A2FB8A
:102CE0000C45001BA94103D2ACF1010C80185941DD
:102CF00030BC02460B46604600217047B2F1807F2F
:102D000065D3F0B5B2FA82F7B1FA81F4C7F10F06D4
:102D10003D1B22FA06F307F1110EF24120355A400D
:102D2000B5F10F07B8D94140C4F12006A040F141E8
:102D30004140B1FBF3FC03FB1C11A2FB0C45001B43
:102D4000A94103D2BCF1010C801859410F2F12D3B5
:102D50000F3FC90341EA5041B1FBF3F603FB1611E3
:102D6000A2FB0645D4EBC030A94102D2761E8018E2
:102D7000594146EACC3C07B34140C7F12006B84070
:102D8000F1414140B1FBF3F603FB1611A2FB0645EE
:102D9000001BA94102D2761E8018594180EA010227
:102DA00021FA0EF3C7F1200462FA0EF20CFA07F0D2
:102DB0005A402CFA04F13043F0BD80EA010221FAB6
:102DC0000EF3002162FA0EF260465A40F0BD8C46C6
:102DD000B1FBF2F102FB11C31B0243EA1063B3FB28
:102DE000F2FC02FB1C331B024CEA002043EA106396
:102DF000B3FBF2FC02FB1C331B024CEA002043EA4B
:102E00001063B3FBF2FC02FB1C331B024CEA0020F4
:102E100043EA1063B3FBF2FC02FB1C324CEA0020D5
:102E200000237047B0B581EA030C0CF0004C40F26F
:102E3000FF7515EA11541DBF15EA1357AC42AF4296
:102E400039E0E41923EA455343F48013C90241F001
:102E5000004141EA505EC7021100A7FB02020028B0
:102E60004FF00000EEFB01204FF00001E3FB0721D3
:102E700018BF42F00102401800214941E3FB0E0156
:102E8000A4F580640F0302D252004041494154F13D
:102E900001046CDD470872F1004250F1000051EB73
:102EA0000451A1F580115CBF41EA0C01B0BD4CEAB0
:102EB00005510020B0BD05EA1357AC4214BFAF4224
:102EC00041E050EA410E1CBF52EA430E02E0614667
:102ED0000020B0BD24423C441BD15FEA070EF6D06F
:102EE000090302BF01460020AEF1140EB1FA81F7CA
:102EF000AEEB070401FA07FE0C37C7F1200100FA18
:102F000007F7C8404EEA000E23EA455343F4801306
:102F1000A2E733F00043B3FA83F704BFB2FA82FEAC
:102F200077440B3FE41BB7F1200E2FBF02FA0EF3DC
:102F3000BB40C7F1200E22FA0EFE38BF43EA0E0353
:102F4000BA40641C82E750EA410E14BF52EA430EB5
:102F50006FF000014FF4001717EB430F8ABF1946BB
:102F600017EB410FB5E74CEA05510020B0BDD4F195
:102F70000104B4F120070FDAC4F12007520828BF7A
:102F800042F0010210FA07F501FA07F7E1BF2A4300
:102F9000E0403843E1400FE0352C98DCC7F12004D5
:102FA00052EA400220FA07F218BF42F0010231FA59
:102FB00007F0A1400A43002172F1004250F10000E5
:102FC00051EB0C01B0BD000062B38B0708D0521E5C
:102FD00011F8013B00F8013B00F024808B07F6D18B
:102FE000830740F0208000BF103A07D330B4B1E827
:102FF0003810103AA0E83810F9D230BC530724BF7B
:10300000B1E80810A0E8081044BF51F8043B40F8AC
:10301000043BD20724BF31F8022B20F8022B44BF17
:103020000B7803707047121F17D35B0009D151F85A
:10303000043B20F8023B1B0C121F20F8023BF6D287
:103040000BE051F8043B00F8013B1B0A20F8023B5F
:103050001B0C121F00F8013BF3D238BF121D521E89
:1030600024BF11F8013B00F8013BF8D8704700007D
:1030700010B5144600F002F8226010BDC1F30A53E7
:1030800043B14A0012F5001F28D2A3F2FE32A1EB91
:103090000251704750EA410C20D001F0004C31EA57
:1030A0000C01B1FA81F204BFB0FA80F3D2180B3AE6
:1030B000B2F120032CBF00FA03F1914041EA0C0168
:1030C0003EBFC2F1200C20FA0CF31943904052424B
:1030D00040F2FD33D21A01EB0351704700227047D2
:1030E000F0B540F2FF7581EA030C0CF0004C15EAD4
:1030F00011541DBF15EA1357AC42AF42E5E0BC4185
:10310000C1F31301C3F31303801A994143F48013ED
:1031100004D2641E4000494180185941C90241EA65
:103120005051B1FBF3F603FB1611A2FB0675D7EB6A
:10313000C020A94102D2761E80185941C90241EA35
:103140005051B1FBF3FE03FB1E11A2FB0E75D7EB32
:10315000C020A94103D2AEF1010E80185941890265
:1031600041EA9051760546EA8E2EB1FBF3F603FB59
:103170001611A2FB0675D7EB8020A94102D2761E5C
:1031800080185941C90241EA50514EEA060EB1FB7E
:10319000F3F603FB1611A2FB0675D7EBC020A9417D
:1031A00002D2761E80185941C90241EA5051B1FB42
:1031B000F3F703FB1711A2FB0735D3EBC020A9419E
:1031C00067F100070CBF004247F0010766F3D527FF
:1031D0004FEA1E31B80814F5806412DDBD0775F1A1
:1031E000004250EB0E5051EB045111F5801F5CBFB3
:1031F00041EA0C01F0BD4CF07F6141F0E04100205C
:10320000F0BDBD076D0840EA0E5041F48011D4F1C5
:103210000104B4F120060ADAC4F120060200E040FD
:1032200001FA06F3E1401843B24015430EE0342C96
:1032300013DCC6F1200445EA40056D0820FA06F2C9
:10324000154321FA06F0A1400D43002175F100421B
:1032500050F1000051EB0C01F0BD00205FEA0C01C1
:10326000F0BDCFB992185B41B3FA83F704BFB2FA4D
:1032700082F6BF190B3FB7F120062FBF02FA06F303
:10328000BB40C7F1200622FA06F638BF3343BA40E6
:103290001CB1E419641E33E77F4231F00041B1FAFA
:1032A00081F404BFB0FA80F6A4190B3CB4F12006F7
:1032B0002FBF00FA06F1A140C4F1200620FA06F65D
:1032C00038BF3143A0403C1B1AE7AC421ABF05EAA5
:1032D0001357AF4212E050EA41061CBF52EA4306C0
:1032E000BFE750EA4107304661461CBF41EA05513D
:1032F000F0BD52EA430C08BFC143F0BD00204FF4BB
:10330000001616EB410F98BF16EB430F08BF16EBE4
:10331000410F24BFC14305E016EB430F0CBF6146CC
:103320004CEA0551F0BD0000400D491840EA8120EB
:103330000CD2490DA1F58061491C40F0004005DB2D
:10334000D1F11F0154BFC840C0177047002070471B
:10335000014648B1B0FA80F18840C91CC1F58461CA
:10336000090501EBD02140057047000070B44FF013
:10337000004591EA030F40F17D806B40841A71EBA8
:10338000030603D2001BB141121973414FF4001C14
:103390001CEB410F34BF7CEB430442E00C0DA4EB6B
:1033A0001356352E4FDC45EAC323DB0A45EAC1211B
:1033B000C912B6F120050DDD63FA05F6EB4086EA89
:1033C0000305124218BF45F00105C01851F1000174
:1033D0000CD213E062FA06F5F2405540F3415A4030
:1033E000B340F3405A408018594107D349085FEA77
:1033F00030005FEA350528BF45F0010501F5801171
:10340000420875F1004250F1000041EB04514E00BA
:1034100016F5001F70BC38BF70470020090D090564
:1034200070471CEB410F10D252EA43060BD0BCEBA5
:10343000410F05D80C0DAB43661E342EB6DD02E0FD
:10344000AB438018594170BC704770BC7047000096
:10345000004870476C0CFF1F012000F0C1B800004D
:103460007047000070B44FF0004591EA030F7FF5FC
:1034700085AF6B40841A71EB030604D26E40001BCB
:10348000B141121973414FF4001C1CEB410F34BFC2
:103490007CEB430683E00C0DA4EB1356362E00F3B1
:1034A0007C80012E45EAC32341DC43EA525312BF1C
:1034B000D20292025B08240545EAC12141EA50513B
:1034C000D2EBC020994125D407D1B0FA80F610FA8A
:1034D00006F162D00020203608E0B1FA81F6B14052
:1034E000C6F1200220FA02F21143B0404FEAF47410
:1034F000B4EB465434F001064FEA74040AD8D6F50A
:103500000016760D04F00044F04061FA06F25040D7
:10351000F1404840C00A40EA415021F0004128BF34
:103520005FEA500550F1000044EBD12135E0DB0AA1
:1035300045EAC121C90AB6F120050EDD42EA024280
:10354000120CC5F1200603FA06F6EB4042EA060526
:103550006D42984161F100010DE062FA06F5F2401A
:10356000554063FA06FC82EA0C02F3405A406D4271
:10357000904161EB030111F4801F05D1641E6205C7
:1035800002D06D004041494121F48011430875F19A
:10359000004350F1000041EB045170BC70471CEB3C
:1035A000410F15D223F0004352EA43060BD04FEAF5
:1035B0004C0CBCEB410F04D80C0D661E342EB7DD4D
:1035C000EBE7801A994150EA410608BF0021E4E781
:1035D00008BF1CEB430F28BF6FF00001DDE70000C0
:1035E0002021090326311820ABBEF9E780B5502011
:1035F000ADF800000A20ADF802004FF478431F2216
:10360000A3A1009800F033FE6E20ADF800000A2060
:10361000ADF802004FF478431F22DFF85409017817
:10362000009800F058FE6E20ADF800001E20ADF8A6
:1036300002004FF478431F22DFF838090178009820
:1036400000F049FE5020ADF800001E20ADF8020049
:103650004FF478431F228FA1009800F008FE6E20DF
:10366000ADF800003220ADF802004FF478431F227D
:10367000DFF804090178009800F02DFE5020ADF825
:1036800000003220ADF802004FF478431F2282A1DF
:10369000009800F0ECFD4620ADF800004620ADF8A3
:1036A00002004FF478431F227CA1009800F0DFFD58
:1036B0006E20ADF800004620ADF802004FF47843CC
:1036C0001F22DFF8B8080178009800F004FE4620B9
:1036D000ADF800005A20ADF802004FF478431F22E5
:1036E0006FA1009800F0C3FD6E20ADF800005A20D5
:1036F000ADF802004FF478431F22DFF88408017808
:10370000009800F0E8FD4620ADF800006E20ADF80E
:1037100002004FF478431F2262A1009800F0A7FD39
:103720006E20ADF800006E20ADF802004FF4784333
:103730001F22DFF850080178009800F0CCFD282007
:10374000ADF800000A20ADF802004FF478431F22C4
:10375000DFF834080178009800F0BDFD0A20ADF8CC
:1037600000000A20ADF802004FF478431F224EA15A
:10377000009800F07CFD2820ADF800001E20ADF878
:1037800002004FF478431F22DFF800080178009808
:1037900000F0A1FD0A20ADF800001E20ADF80200E7
:1037A0004FF478431F2241A1009800F060FD2820CB
:1037B000ADF800003220ADF802004FF478431F222C
:1037C000DFF8CC070178009800F085FD0A20ADF8FD
:1037D00000003220ADF802004FF478431F2234A1DC
:1037E000009800F044FD2820ADF800004620ADF818
:1037F00002004FF478431F22DFF898070178009801
:1038000000F069FD0A20ADF800004620ADF8020086
:103810004FF478431F2227A1009800F028FD2820AC
:10382000ADF800005A20ADF802004FF478431F2293
:10383000DFF864070178009800F04DFD0A20ADF82C
:1038400000005A20ADF802004FF478431F221AA15D
:10385000009800F00CFD2820ADF800006E20ADF8B7
:1038600002004FF478431F22DFF8300701780098F8
:1038700000F031FD0A20ADF800006E20ADF8020026
:103880004FF478431F220DA1009800F0F0FC01BD19
:103890005448000052454700444B50005A5700001E
:1038A000567900004E53000043420000434D000093
:1038B000444B44004B700000524300004A53000048
:1038C00010B5DFF8DC46206800280FD16420FEF731
:1038D00012F820680028FCD0DFF8C8060178491CDF
:1038E000017001780D2901D101210170DFF8B8467E
:1038F000206800280FD16420FDF7FDFF2068002814
:10390000FCD0DFF8A0160878401E08700878002860
:1039100001D10D200870DFF894462068002840F09F
:103920002D816420FDF7E7FF20680028FCD0DFF838
:103930007406007801281AD0C0F02081032844D0F2
:103940002ED3052871D05BD3072800F09880C0F0F3
:103950008180092800F0BD80C0F0A6800B2800F00F
:10396000E280C0F0CB800C2800F0F48006E1FFF785
:103970003DFEDFF8FC050178491C01700178DFF895
:1039800030261170DFF82C466E2121800A216180DB
:103990004FF478431F220178206800F09CFCEDE092
:1039A000FFF724FEDFF8CC150878401C0870DFF81C
:1039B00004066E2202801E2242804FF478431F22AA
:1039C0000978006800F087FCD8E0FFF70FFEDFF809
:1039D000A8150878401C0870DFF8B8050078DFF8F3
:1039E000D0259070DFF8CC056E2202803222428012
:1039F0004FF478431F220978006800F06CFCBDE0AA
:103A0000FFF7F4FDDFF874150878401C0870DFF844
:103A1000A4056E220280462242804FF478431F2282
:103A20000978006800F057FCA8E0FFF7DFFDDFF839
:103A300050150878401C0870DFF878056E22028067
:103A40005A2242804FF478431F220978006800F020
:103A500042FC93E0FFF7CAFDDFF828150878401C08
:103A60000870DFF850056E2202806E2242804FF40B
:103A700078431F220978006800F02DFC7EE0FFF7F4
:103A8000B5FDDFF804150878401C0870DFF8240540
:103A9000282202800A2242804FF478431F220978AC
:103AA000006800F018FC69E0FFF7A0FDDFF8DC1407
:103AB0000878401C0870DFF8FC04282202801E22CF
:103AC00042804FF478431F220978006800F003FC1D
:103AD00054E0FFF78BFDDFF8B8140878401C08703D
:103AE000DFF8D00428220280322242804FF478434B
:103AF0001F220978006800F0EEFB3FE0FFF776FD3B
:103B0000DFF890140878401C0870DFF8A804282219
:103B10000280462242804FF478431F2209780068D1
:103B200000F0D9FB2AE0FFF761FDDFF86C040178B3
:103B3000491C0170DFF87C04282101805A21418052
:103B40004FF478431F22DFF854140978006800F01E
:103B5000C2FB13E0FFF74AFDDFF840140878401C71
:103B60000870DFF85004282202806E2242804FF451
:103B700078431F220978006800F0ADFBDFF8384475
:103B80002068002840F018816420FDF7B4FE20680A
:103B90000028FCD0DFF80C040078012819D0C0F010
:103BA0000B81032843D02DD305286ED05AD3072884
:103BB00000F091807CD3092800F0B380C0F09E8093
:103BC0000B2800F0D480C0F0BF800C2800F0E28009
:103BD000F2E0FFF70BFDDFF898030178491E017052
:103BE0000178DFF8CC231170DFF8C8436E21218003
:103BF0000A2161804FF478431F220178206800F089
:103C00006AFBD9E0FFF7F2FCDFF868130878401E82
:103C10000870DFF8A0036E2202801E2242804FF45B
:103C200078431F220978006800F055FBC4E0FFF7D5
:103C3000DDFCDFF844130878401E0870DFF85403F9
:103C40000078DFF86C239070DFF868036E22028042
:103C5000322242804FF478431F220978006800F036
:103C60003AFBA9E0FFF7C2FCC4490878401E08707F
:103C7000D0486E220280462242804FF478431F22B1
:103C80000978006800F027FB96E0FFF7AFFCBC491D
:103C90000878401E0870C7486E2202805A2242806F
:103CA0004FF478431F220978006800F014FB83E08A
:103CB000FFF79CFCB3490878401E0870BD486E228F
:103CC00002806E2242804FF478431F2209780068F8
:103CD00000F001FB70E0FFF789FCAB490878401E5B
:103CE0000870B448282202800A2242804FF47843A8
:103CF0001F220978006800F0EEFA5DE0FFF776FC1D
:103D0000A2490878401E0870AA48282202801E2274
:103D100042804FF478431F220978006800F0DBFAF4
:103D20004AE0FFF763FC9A490878401E0870A148F2
:103D300028220280322242804FF478431F220978E1
:103D4000006800F0C8FA37E0FFF750FC91490878A6
:103D5000401E0870974828220280462242804FF475
:103D600078431F220978006800F0B5FA24E0FFF7D5
:103D70003DFC89490878401E08708E482822028040
:103D80005A2242804FF478431F220978006800F0DD
:103D9000A2FA11E0FFF72AFC80490878401E08705B
:103DA0008448282202806E2242804FF478431F22EA
:103DB0000978006800F08FFA7A480078012817D057
:103DC000C0F0D580032833D022D3052850D03FD36C
:103DD00007286DD05CD3092800F08A8078D30B289F
:103DE00000F0A680C0F094800C2800F0B180BEE006
:103DF000FFF7FCFB6F486E2101800A2141804FF6DE
:103E0000FF731F225A490978006800F064FAAEE097
:103E1000FFF7ECFB67486E2101801E2141804FF6C1
:103E2000FF731F2253490978006800F054FA9EE09E
:103E3000FFF7DCFB5F486E210180322141804FF6A5
:103E4000FF731F224C490978006800F044FA8EE0A5
:103E5000FFF7CCFB57486E210180462141804FF48B
:103E600078431F2245490978006800F034FA7EE063
:103E7000FFF7BCFB4F486E2101805A2141804FF46F
:103E800078431F223E490978006800F024FA6EE06A
:103E9000FFF7ACFB47486E2101806E2141804FF453
:103EA00078431F2237490978006800F014FA5EE071
:103EB000FFF79CFB3F48282101800A2141804FF6F3
:103EC000FF731F2230490978006800F004FA4EE0C1
:103ED000FFF78CFB3748282101801E2141804FF6D7
:103EE000FF731F2229490978006800F0F4F93EE0C9
:103EF000FFF77CFB2F4828210180322141804FF6BB
:103F0000FF731F2222490978006800F0E4F92EE0CF
:103F1000FFF76CFB274828210180462141804FF69E
:103F2000FF731F221B490978006800F0D4F91EE0D6
:103F3000FFF75CFB1F48282101805A2141804FF682
:103F4000FF731F2214490978006800F0C4F90EE0DD
:103F5000FFF74CFB1748282101806E2141804FF468
:103F600078431F220D490978006800F0B4F910BDAC
:103F7000F80CFF1FF50CFF1FFA0CFF1FFB0CFF1FB7
:103F80003A76FF1F3876FF1F3776FF1F4B76FF1FED
:103F90003976FF1FF90CFF1FF40CFF1F4776FF1F38
:103FA0000C22FE43000DFF1F2822FE431022FE4379
:103FB0001804FF1F1C13FF1F0822FE431CB5DFF867
:103FC0009C030468FCF728FAFDF735FBADF8000008
:103FD000FDF72EFBADF802004FF478420099200067
:103FE00000F001F813BDF2B504001500009920009F
:103FF000FDF751FABDF80010BDF802004143DFF8AB
:10400000600301220260DFF85C2300231360DFF805
:10401000583300261E60DFF854632C273770DFF812
:1040200050735FF0000CC7F800C05FF0010CC7F8D8
:1040300000C05FF0010CC3F800C05FF0000C8C45BD
:104040003AD25FF0010EC0F800E05FF0010EC2F856
:1040500000E05FF0000EC3F800E0AE461FFA8EFEEF
:104060005FEA1E2E86F800E05FF0000EC7F800E061
:104070005FF0010EC7F800E05FF0010EC3F800E04A
:104080005FF0010EC0F800E05FF0010EC2F800E042
:104090005FF0000EC3F800E035705FF0000EC7F867
:1040A00000E05FF0010EC7F800E05FF0010EC3F81A
:1040B00000E01CF1010CC2E7F1BD2DE9F14F0C004D
:1040C00015001E00DFF8AC02D0F80090FDF7B3FA3F
:1040D0000838BDF80010884206DBFDF7A9FA103851
:1040E000BDF80210884200DABFE049460098FDF7AB
:1040F000D2F9DFF86C0201210160DFF868120022BA
:104100000A60DFF8642200231360DFF860325FF09A
:104110002C0C83F800C0DFF858C25FF0000ECCF81A
:1041200000E05FF0010ECCF800E05FF0010EC2F895
:1041300000E05FF0000EF2465FFA8AFABAF1100F63
:1041400080F29380DFF830A2A3465FFA8BFB5FEA30
:104150000B1B5BFA8EFBDA44BAF5007A9AF800A0E2
:1041600057465FF0000AD046C2465FFA8AFABAF1B3
:10417000080F77DA5FEA076A38D55FF0010AC0F8FE
:1041800000A05FF0010AC1F800A05FF0000AC2F8C9
:1041900000A0AA461FFA8AFA5FEA1A2A83F800A04A
:1041A0005FF0000ACCF800A05FF0010ACCF800A094
:1041B0005FF0010AC2F800A05FF0010AC0F800A099
:1041C0005FF0010AC1F800A05FF0000AC2F800A089
:1041D0001D705FF0000ACCF800A05FF0010ACCF877
:1041E00000A05FF0010AC2F800A037E05FF0010A0A
:1041F000C0F800A05FF0010AC1F800A05FF0000A5B
:10420000C2F800A0B2461FFA8AFA5FEA1A2A83F8B7
:1042100000A05FF0000ACCF800A05FF0010ACCF823
:1042200000A05FF0010AC2F800A05FF0010AC0F828
:1042300000A05FF0010AC1F800A05FF0000AC2F818
:1042400000A01E705FF0000ACCF800A05FF0010A29
:10425000CCF800A05FF0010AC2F800A07F0018F1BE
:10426000010881E71EF1010E65E7BDE8F18F71B528
:1042700081B00C0015001E00207800282AD0FDF720
:10428000DAF90838BDF80410884207DA0020ADF8E2
:104290000400BDF806001030ADF80600FDF7C8F9BF
:1042A0001038BDF80610884205DA0020ADF8060087
:1042B0000020ADF8040033009BB22A0092B22178AE
:1042C0000198FFF7FAFEBDF804000830ADF80400CD
:1042D000641CD1E773BD2DE9F14181B00C001600DB
:1042E0001F0025005FF00008BDF80600ADF80200D1
:1042F000002C08D13B009BB2320092B230210198D1
:10430000FFF7DBFE27E0002D05D00A20B5FBF0F516
:1043100018F10108F7E7002C1DD0BDF80400414654
:10432000C9B289B210EBC1000838ADF80000B8F18D
:1043300001080A213B009BB2320092B2B4FBF1F0BB
:1043400001FB10413031C9B20098FFF7B6FE0A20D8
:10435000B4FBF0F4DFE7BDE8F3810000289900002A
:104360002810FE433010FE432C10FE4380F00F4017
:104370002410FE432C9900009C85000000000000E2
:1043800000004E40143246000000AD420000AB4237
:1043900000004842666688420000484200005442DD
:1043A0000000484200003C42000048420000284211
:1043B0000000284200002842000000000000000029
:1043C00000000000000000000000000000000000ED
:1043D0000000000000004E6F6E4D61736B61626CF7
:1043E0006500000000486172644661756C740000ED
:1043F000000000004D656D4D616E6167656D656E15
:104400007400004275734661756C74000000000012
:10441000000055736167654661756C7400000000AB
:10442000000000000000000000000000000000008C
:10443000000000000000000000000000000000007C
:10444000000000000000000000000000000000006C
:104450000000000000000000000000000053564370
:10446000616C6C0000000000000000004465627593
:10447000674D6F6E69746F720000000000000000ED
:104480000000000000000000000050656E645356FC
:104490000000000000000000005379735469636B52
:1044A0000000000000000000444D4130000000000A
:1044B00000000000000000444D41310000000000F9
:1044C000000000000000444D4132000000000000E8
:1044D0000000000000444D413300000000000000D7
:1044E00000000000444D41340000000000000000C6
:1044F000000000444D4135000000000000000000B5
:104500000000444D413600000000000000000000A3
:1045100000444D4137000000000000000000000092
:10452000444D41380000000000000000000000443D
:104530004D41390000000000000000000000444D23
:1045400041313000000000000000000000444D41F7
:10455000313100000000000000000000444D4131F6
:104560003200000000000000000000444D413133E3
:1045700000000000000000000000444D4131340004
:10458000000000000000000000444D4131350000F3
:104590000000000000000000444D415F4572726F52
:1045A000720000000000004D434D000000000000BC
:1045B0000000000000004654464C000000000000CF
:1045C0000000000000526561645F436F6C6C6973AA
:1045D000696F6E004C56445F4C5657000000000057
:1045E0000000004C4C5700000000000000000000DC
:1045F00000005761746368646F670000000000008A
:1046000000524E47000000000000000000000000C3
:104610004932433000000000000000000000004963
:104620003243310000000000000000000000535041
:104630004930000000000000000000000053504915
:10464000310000000000000000000000535049321B
:10465000000000000000000000000043414E305FF9
:104660004F525F4D425F6275660043414E305F427C
:1046700075735F4F666600000043414E305F4572C0
:10468000726F72000000000043414E305F54785F4B
:104690005761726E696E6743414E305F52785F5763
:1046A00061726E696E6743414E305F57616B655F43
:1046B000557000000052657365727665643531008F
:1046C0000000000052657365727665643532000043
:1046D00000000043414E315F4F525F4D425F6275B3
:1046E000660043414E315F4275735F4F666600005E
:1046F0000043414E315F4572726F7200000000004E
:1047000043414E315F54785F5761726E696E674303
:10471000414E315F52785F5761726E696E674341F7
:104720004E315F57616B655F5570000000526573D5
:104730006572766564353900000000005265736566
:1047400072766564363000000000005541525430E6
:104750005F52585F54580000000055415254305F7A
:1047600045525200000000000055415254315F5242
:10477000585F54580000000055415254315F455273
:104780005200000000000055415254325F52585F01
:1047900054580000000055415254325F45525200B7
:1047A000000000000055415254335F52585F545886
:1047B0000000000055415254335F45525200000042
:1047C00000000055415254345F52585F5458000065
:1047D000000055415254345F455252000000000021
:1047E0000055415254355F52585F54580000000044
:1047F00055415254355F45525200000000000041BF
:10480000444330000000000000000000000041446C
:1048100043310000000000000000000000434D5044
:10482000300000000000000000000000434D503147
:104830000000000000000000000000434D50320066
:104840000000000000000000000046544D30000051
:1048500000000000000000000046544D3100000040
:10486000000000000000000046544D32000000002F
:1048700000000000000000434D5400000000000054
:10488000000000000000525443000000000000003F
:10489000000000000052657365727665643833006D
:1048A00000000000504954300000000000000000EB
:1048B00000000050495431000000000000000000DA
:1048C00000005049543200000000000000000000C9
:1048D00000504954330000000000000000000000B8
:1048E000504442300000000000000000000000556D
:1048F000534230000000000000000000000055534B
:1049000042444344000000000000000000454E45C2
:10491000545F313538385F54696D6572454E455482
:104920005F5472616E736D69740000454E45545F4B
:1049300052656365697665000000454E45545F45E4
:1049400072726F72000000000049325330000000A4
:104950000000000000000000534448430000000035
:10496000000000000000004441433000000000004F
:10497000000000000000444143310000000000003E
:104980000000000000545349300000000000000007
:10499000000000004D434700000000000000000040
:1049A0000000004C5054696D65720000000000006A
:1049B0000000526573657276656431303200000024
:1049C00000504F5254410000000000000000000061
:1049D000504F525442000000000000000000005000
:1049E0004F52544300000000000000000000504FF0
:1049F00052544400000000000000000000504F52DC
:104A0000544500000000000000000000526573657E
:104A1000727665643130380000000052657365724B
:104A20007665643130390000000052657365727636
:104A3000656431313000000000526573657276653F
:104A4000643131310000000052657365727665642F
:104A50003131320000000052657365727665643151
:104A60003133000000005265736572766564313140
:104A7000340000000052657365727665643131352B
:104A8000000000005265736572766564313136004E
:104A9000000000526573657276656431313700003D
:104AA000000052657365727665643131380000002C
:104AB000005265736572766564313139000000001B
:104AC000008003400090034000800B4000900B40AA
:104AD00000F00F4040F00F4080F00F40C0F00F405A
:104AE00000F10F404C000E1E320007016400071059
:104AF0006E000406780004088200040A8C00040C8E
:104B00009600040EA0000410AA000412B4000414BD
:104B1000BE000416C8000418D200041ADC00041CED
:104B2000E100041DE600041EEB00041FF40003175F
:104B3000FA000318130101062C01021400010908F0
:104B40000090044000A0044000B0044000C00440B5
:104B500000D0044000C0024000D0024000C00A4023
:104B600000A0064000B0064000C0064000D006404D
:104B700000A00E4000B00E40010000000200F40151
:104B8000030050000400BC0005007800060000008F
:104B90000700000008001E000000000001000000E7
:104BA00002000000030000000400000005000000F7
:104BB0000600000007000000080000006A6E6B6C31
:104BC000676D4E4F11100F073443101001000000A5
:104BD00034431010010000003099000030990000AB
:104BE00030990000309900003099000030990000A1
:104BF00030990000FFFFFFFFFFFFFFFF3299000029
:104C00003099000030990000FFFFFFFFFFFF000018
:104C100002040101C875FF1F1876FF1FC875FF1F2A
:104C2000C875FF1F00000000C875FF1F00000000CE
:104C3000E80CFF1FD40CFF1F000000000000000064
:104C40000000000000000000000000000000000064
:104C50000000000000000000D007D00780008000A6
:104C6000055A3C04145A5A5A28040404010101004C
:104C7000DFF8B806B0F90000B0F57A7F04DA012059
:104C8000DFF8AC16086003E00020DFF8A416086027
:104C9000DFF8A006B0F90000B0F57A7F04DA012051
:104CA000DFF89416086003E00020DFF88C16086037
:104CB000DFF888060078002834D1DFF88406006821
:104CC000002826D1DFF868060068012809D1DFF83E
:104CD0007406DFF8741608600120DFF8701608709B
:104CE00052E0DFF854060068012809D1DFF86006B9
:104CF000DFF8541608600120DFF85016087043E012
:104D00000020DFF8441608600020DFF84016087025
:104D10003AE00020DFF8341608700020DFF834167F
:104D2000086031E0DFF818060068002824D1DFF8B9
:104D300028060178012909D1DFF80806DFF80816EE
:104D400008600120DFF8041608701DE000780228D2
:104D500009D1DFF8FC05DFF8F01508600120DFF865
:104D6000EC15087010E00020DFF8DC15086000206A
:104D7000DFF8D815087007E00020DFF8D0150870BC
:104D80000020DFF8D0150860704780B56946002024
:104D9000FCF7EBFF9DF80000DFF8BC150870FFF78B
:104DA00067FF01BD38B569460420FCF7DEFF9DF8BA
:104DB0000000FD280CD1DFF8A4150878002807D1E1
:104DC000012008709DF80000DFF8941508706AE073
:104DD0009DF80000FB280CD1DFF88005017801293F
:104DE00007D1022101709DF80000DFF874154870AA
:104DF00059E0DFF868452078022819D1DFF86415FA
:104E00000878002814D00878401E0870DFF858058C
:104E10009DF80020DFF8483505782B449A70027819
:104E2000521C0270087800283DD1032020703AE01F
:104E3000207803282DD19DF80000FC281ED1DFF832
:104E400020058178DFF824251170C178DFF820254E
:104E500011700179DFF81C2511704079DFF8181501
:104E6000087000F0C1FA002020700420DFF8F4146C
:104E700008700020DFF8F014087014E00020DFF85C
:104E8000E81408700420DFF8DC140870002020709B
:104E900009E0002020700420DFF8C814087000200A
:104EA000DFF8C414087031BD10B5DFF8D004016814
:104EB00051F00101016000F0BFFADFF8C40400788E
:104EC00001283ED1DFF8BC442078002839D100F019
:104ED0000BFC00F08AFDDFF8B004B0F9000000F030
:104EE0009BFE0F2817DBDFF8A404B0F9000000F0E8
:104EF00093FE0F280FDBDFF89804B0F9000000F0F4
:104F00008BFE0F2807DBDFF88C04B0F9000000F0FF
:104F100083FE0F280FDADFF880040188491C018026
:104F2000B0F9001040F2F51291420ADB0121217024
:104F30000021018005E0002020700020DFF85814D7
:104F4000088010BD80B500210020FCF7B3FD00F003
:104F5000BDFA01BD80B5FFF725FF01BD38B5DFF80B
:104F60003C4421000120FCF700FF20780D280BD1E4
:104F7000DFF82C140878002806D10120087020786A
:104F8000DFF8201408709CE020780A280BD1DFF8A5
:104F900010040178012906D1022101702078DFF880
:104FA000041448708DE0DFF8F8532878022811D1F6
:104FB00020786D280BD0DFF8F0032178DFF8E423A8
:104FC00003781A4491700178491C017079E003203C
:104FD000287076E0287803286ED120786D2865D176
:104FE000DFF8C4432078012809D1DFF8B8038178BD
:104FF000303981708078DFF8341308804FE02078F2
:1050000002280FD1DFF89C03817830398170C17894
:105010003039C17081780A22C07802FB0101C3488F
:1050200001803CE02078032817D1DFF878038178ED
:1050300030398170C1783039C170017930390171EE
:105040008178642211FB02F1C2780A2312FB03115A
:1050500000790818B549088021E0207804281ED17D
:10506000DFF84003817830398170C1783039C17000
:1050700001793039017141793039417181784FF4CA
:105080007A7211FB02F1C278642312FB03110279D8
:105090000A2312FB031140790818A4490880FFF77E
:1050A000E7FD00202870002020700AE00020BE49A3
:1050B00008700020287004E0002028700020BA4901
:1050C000087031BD38B5B94C21000520FCF74DFE04
:1050D00020780D2809D1B6490878002805D101208B
:1050E00008702078B349087091E020780A2809D127
:1050F000AF480178012905D1022101702078AD491E
:10510000487084E0AA4D287802280FD120786D28B5
:1051100009D0A9482178A74A03781A4491700178E8
:10512000491C017073E00320287070E02878032880
:1051300068D120786D285FD19F4C2078012807D155
:105140009C4881783039817080787A4908804CE0B9
:10515000207802280ED19748817830398170C17843
:105160003039C17081780A22C07802FB0101714890
:1051700001803AE02078032816D18E4881783039B2
:105180008170C1783039C17001793039017181780D
:10519000642211FB02F1C2780A2312FB0311007989
:1051A00008186449088020E0207804281DD181482F
:1051B000817830398170C1783039C17001793039E6
:1051C000017141793039417181784FF47A7211FB64
:1051D00002F1C278642312FB031102790A2312FB45
:1051E00003114079081853490880FFF741FD00205A
:1051F0002870002020700AE000206F49087000200D
:10520000287004E00020287000206B49087031BD30
:1052100038B56A4805685FF0FF3101601B2428003B
:10522000E040C00701D500F01DFE31BD38B564492E
:1052300008680028FBD00D685FF0FF3008601D246F
:105240002800E040C00701D500F0B8FF31BD80B5AF
:105250005C48016851F00101016000F0BCFF01BD34
:105260002DE9F8435848016851F001010160574C9D
:10527000574E584FB86B00F0EDFFF16800F0FCFF9F
:1052800001F03AF82060544DD7F8C00000F0E2FF7A
:10529000F16801F047F801F02FF82860DFF83C8151
:1052A000D7F8480100F0D6FFF16800F0E5FF01F003
:1052B00023F8C8F80000DFF82891D7F8D00100F0F3
:1052C000C9FFF16801F02EF801F016F8C9F80000E6
:1052D000D9F8000000F0BEFF03001E00D8F800005F
:1052E00000F0B8FF0200330016001F00286800F02D
:1052F000B1FF01003B0032000D0016001F002068C6
:1053000000F0A8FF3B003200290001F0DFF9BDE802
:10531000F18310B503243348210049B250F821002D
:105320000079800601D500F088FE10BDEE0CFF1F4D
:10533000F412FF1FEC0CFF1FF812FF1F3076FF1F47
:105340008412FF1F000070423013FF1F3D76FF1FC5
:10535000000070C2FC12FF1F3F76FF1F4176FF1F47
:105360000013FF1FFF0CFF1F4276FF1FFC0CFF1FE7
:105370003E76FF1FFD0CFF1FFE0CFF1F1C7103403C
:105380004876FF1F4076FF1F1C76FF1F1E76FF1F0B
:105390002076FF1F2276FF1F2A76FF1F3B76FF1F16
:1053A0004376FF1F0C13FF1F4476FF1F3C76FF1F41
:1053B0004576FF1F1413FF1F4676FF1FA0D0044041
:1053C000A0900440248000400C710340E412FF1FB1
:1053D0007013FF1FD00FFF1FE812FF1FEC12FF1FFB
:1053E000F012FF1FF40BFF1F80B50E480088002845
:1053F00007D00D480078042803DA00200B49087014
:105400000CE00B480078002808D00A4800780428EF
:1054100004DA01200549087001F07AFA00F0DCF89E
:1054200001BD00001876FF1F2C76FF1F3076FF1F8E
:105430003E76FF1FFE0CFF1FF8B55B4C022001F00B
:105440004DFE40422080594D012001F047FE404270
:105450002880574E5748B0F9000040423080564FE0
:105460005648B0F9000040423880B7F90000B5F95D
:10547000001001FA80F0B6F9001000FA81F0B4F9DA
:10548000001000FA81F0042190FBF1F000F0C4FB61
:105490004B490880B5F90000B4F9001001FA80F01A
:1054A000B7F90010B6F9002002FA81F1884203DA58
:1054B00000204449087002E00020424908700120A1
:1054C00001F023FE022001F020FEF1BD38B569464F
:1054D0000220FCF74AFC9DF80000FE280AD13A4958
:1054E0000878002806D1012008709DF8000037498F
:1054F000087057E09DF80000FA280AD13248017878
:10550000012906D1022101709DF800002F49487041
:1055100048E02D490878022816D12D4A1078002835
:1055200012D01078401E10702A489DF80030274C89
:1055300005782C44A37003785B1C03701078002856
:1055400030D1032008702DE00878032822D19DF87F
:105550000000FF2815D11D488278C37853EA022342
:10556000144A13800279407950EA0220134A1080CD
:1055700000200870042016490870002015490870A2
:1055800010E00020134A10700420114A107000200F
:10559000087007E00020087004200D490870002002
:1055A0000C49087031BD00002276FF1F1E76FF1FD8
:1055B0002076FF1F2476FF1F1C76FF1F2676FF1F15
:1055C0002876FF1F3476FF1F3576FF1F9812FF1FC6
:1055D000F70CFF1F3676FF1F30B4DFF8900200781B
:1055E000002810D1A2480068A2490860A2480078AB
:1055F000A2490870A2480078A2490870A248008811
:10560000A24908800FE0A24800789A490860A148A2
:1056100000789A490870A04800789A4908709F4815
:1056200000789A4908809E48924902780B689A420D
:1056300003DB924A1278042A1FDB9A4A8F4B1C78AC
:105640001578AC4201D312781A7000780968884244
:1056500003DA02209449086005E01878042802DB88
:10566000042091490860002090490870002090496A
:10567000086001208F49087034E08D480268521C90
:1056800002608D480078002804D18C480268521CC2
:10569000026002E00020894A10608948B0F90000E9
:1056A000602810DB87480078801E0968884206DA87
:1056B00003207D49086000208049086012E0002036
:1056C000794908600EE07F4800780968884206DA68
:1056D00003207549086000207849086002E0002036
:1056E0007149086030BC704780B56F490868002870
:1056F00021D175480078012803D1744874490860A5
:10570000B3E06D480078012803D172487049086001
:10571000ABE071480078152806DB7048007801F08E
:1057200019FD6B490860A0E06D48007801F012FD9A
:105730006749086099E00868012811D16948006844
:10574000002806D1684862490860684868490860CE
:105750008BE05E485E49086000206649086084E08E
:10576000086802285AD16448016801294AD154497D
:10577000B1F90020142A06DA60495E4A116001215D
:105780005F4A11703BE0B1F90020192A06DA5B4943
:10579000584A116002215A4A117030E0B1F90020D4
:1057A0001E2A06DA5749534A11600321544A1170E0
:1057B00025E0B1F90020232A06DA53494D4A116049
:1057C00004214F4A11701AE0B1F90020282A06DAA4
:1057D0004E49484A11600521494A11700FE0B1F95C
:1057E0000010C82906DA4949424A11601521444A85
:1057F000117004E03C49364A11600021016000212B
:10580000016004E03849324A116001210160002042
:105810003749086000203049087026E008680328EE
:1058200006D13B482A4908600120334908601CE042
:105830000868042819D1114800781A490978884263
:105840000AD034482249086033480078404200F0CA
:1058500001FD2749086005E030481D4908603048CF
:105860002349086000202349086001BD3076FF1FEE
:105870008012FF1F8C12FF1F2C76FF1F3176FF1F37
:105880002D76FF1F3276FF1F1876FF1F1A76FF1F37
:10589000FC0CFF1FFE0CFF1FFD0CFF1F3E76FF1FC1
:1058A000F50CFF1FF60CFF1F8412FF1F2F76FF1F42
:1058B0008812FF1F010DFF1F4A76FF1F9012FF1F66
:1058C0002876FF1F4776FF1F3D76FF1F0000A0C10F
:1058D0003413FF1F000020414D76FF1F3A76FF1F53
:1058E0003876FF1FFC12FF1F0000F041000020C2AD
:1058F0003813FF1F3013FF1F9412FF1F0000B84121
:105900003376FF1F0000E0410000044200003442F3
:1059100000000C42000020C1FB0CFF1F0000A04152
:105920000000A0C270B504000D00DFF88C02006812
:10593000844206D12B002A002900280000F0C6FE70
:1059400052E0DFF87802006884420ED12B0093F019
:1059500000432A0092F00042290091F00041280003
:1059600090F0004000F0B2FE3EE0DFF85402006824
:1059700084420AD12B0093F000432A00290028001A
:1059800090F0004000F0A2FE2EE0DFF83802006840
:1059900084420AD12B002A0092F00042290091F0A3
:1059A0000041280000F092FE1EE0DFF81C020068B3
:1059B00084420AD12B002A0092F0004229002800DC
:1059C00090F0004000F082FE0EE0DFF80002006878
:1059D000844209D12B0093F000432A00290091F062
:1059E0000041280000F072FE70BD2DE9F84FDFF88D
:1059F000E8110868002802D00868032805D1DFF8FC
:105A0000DC01C068DFF8D81108600024DFF8D45149
:105A1000DFF8D4B1DFF8D4A1DFF8C491DAF80010D0
:105A2000DBF8000000F07EFC0600D9F80010DFF87B
:105A3000C00101F09DFB0100300000F01DFC01F0F1
:105A400003FC22002B00FDF7EDF901F021FCDFF84B
:105A5000A4110860DFF87C81DBF80000DAF80010A0
:105A600000F00AFC0600D9F80010DFF8840101F00C
:105A70007FFB310000F056FC01F0E6FB22002B001A
:105A8000FDF7D0F901F004FCC8F80000DFF8686108
:105A9000DBF80000DAF8001000F0EEFB0700D9F8A0
:105AA0000010DFF84C0101F063FB0100380000F04A
:105AB000E3FB01F0C9FB22002B00FDF7B3F901F075
:105AC000E7FB3060DFF83471DAF80010DBF8000033
:105AD00000F028FC8246D9F80010DFF8140101F02C
:105AE00047FB514600F01EFC01F0AEFB22002B00EC
:105AF000FDF798F901F0CCFB3860DFF8040100787D
:105B0000002827D1DFF8C840DFF8E800006800F07F
:105B1000F3FB2080D8F8000000F0EEFB60803068D6
:105B200000F0EAFBA080386800F0E6FBE080DFF8D8
:105B3000D400DFF8D41009880180DFF8D01009887C
:105B40004180DFF8CC1009888180DFF8C81009880F
:105B5000C1802CE0DFF8AC00DFF8AC1009880180D0
:105B6000DFF8A81009884180DFF8A4100988818037
:105B7000DFF8A0100988C180DFF85440386890F041
:105B8000004000F0B9FB2080306890F0004000F049
:105B9000B3FB6080D8F8000090F0004000F0ACFB50
:105BA000A080386890F0004000F0A6FBE08000F094
:105BB0008CFCBDE8F18F00001099000014990000E2
:105BC000189900001C9900002099000024990000F9
:105BD0004C13FF1F4013FF1F8412FF1F7013FF1F82
:105BE0003813FF1F000008403413FF1F3013FF1F3E
:105BF000EC51383E3C13FF1F4413FF1F4813FF1F97
:105C00003076FF1F6413FF1F1C76FF1F1E76FF1FD9
:105C10002076FF1F2276FF1F002848BF40427047B2
:105C200010B5DFF8303300220121002001F064FBC1
:105C3000002201219C20FBF713FD002200219B2064
:105C4000FBF70EFDDFF810139B20FBF703FEDFF8D8
:105C50000C43002020600321232000F033F828218A
:105C6000252000F02FF80F21262000F02BF801212D
:105C7000212000F027F80121222000F023F805223E
:105C8000DFF8DC122A2000F042F82021312000F059
:105C900019F8FF21E22000F015F80522DFF8C41200
:105CA000302000F034F80F21242000F00BF8FF2101
:105CB000E12000F007F800F08FF80120206000F0EC
:105CC0004EF810BD3EB504000D008DF804408DF86F
:105CD00005500220009001AB01AA0121002001F033
:105CE000B1FC9DF804003EBD3EB504000D008DF8EA
:105CF00004400220009001AB01AA0121002001F024
